:020000040800F2
:100000007007002029020008351500089D1200081D
:1000100031150008D503000805160008000000008F
:100020000000000000000000000000003D15000876
:10003000D903000800000000391500084115000828
:10004000430200084302000843020008430200087C
:100050004302000843020008DD03000843020008D1
:10006000430200084302000843020008430200085C
:10007000430200084302000843020008430200084C
:10008000430200084302000843020008430200083C
:10009000430200084302000843020008430200082C
:1000A000430200084302000843020008430200081C
:1000B000430200084302000843020008430200080C
:1000C00043020008430200084302000843020008FC
:1000D00043020008430200084302000843020008EC
:1000E00043020008430200084302000843020008DC
:1000F00043020008430200084302000843020008CC
:1001000043020008430200084302000843020008BB
:1001100043020008430200084302000843020008AB
:10012000430200084302000843020008430200089B
:10013000430200084302000843020008430200088B
:10014000430200084302000843020008430200087B
:10015000430200084302000843020008430200086B
:10016000430200084302000843020008430200085B
:100170004302000843020008430200080000000098
:10018000430200084302000800F002F800F03CF8C7
:100190000AA090E8000C82448344AAF10107DA45E2
:1001A00001D100F031F8AFF2090EBAE80F0013F0F8
:1001B000010F18BFFB1A43F001031847B81C0000D9
:1001C000D81C0000103A24BF78C878C1FAD852076A
:1001D00024BF30C830C144BF04680C6070470000C1
:1001E0000023002400250026103A28BF78C1FBD840
:1001F000520728BF30C148BF0B6070471FB501F0E0
:100200001EFE1FBD10B510BD00F0A9F81146FFF786
:10021000F5FF01F0F9F900F0C7F803B4FFF7F2FFBA
:1002200003BC00F0CFF800000948804709480047A8
:10023000FEE7FEE7FEE7FEE7FEE7FEE7FEE7FEE796
:10024000FEE7FEE704480549054A064B70470000F3
:10025000F1150008890100087001002070070020D6
:10026000700300207003002053EA020C00F0698044
:100270002DE9F04B4FF00006002B1FBFB3FA83F5BA
:1002800003FA05F424FA05F65E4012BF1643B2FAEB
:1002900082F502FA05F4C5F120051EBF22FA05FC1D
:1002A00044EA0C04203556EA044C4FEA144418BFC3
:1002B000641C4FF000084FF00009904271EB030CF2
:1002C00039D3002919BFB1FA81F701FA07F6B0FA5C
:1002D00080F700FA07F6C7F120071EBF20FA07FCD7
:1002E00046EA0C062037B6FBF4FCA7EB0507103FE7
:1002F00007F01F0BCBF120062CFA06F60CFA0BFBCD
:1003000044BFB3460026202FA4BF5E464FF0000B2B
:100310005BEA060C08BF4FF0010B19EB0B0948EB29
:100320000608ABFB027C06FB02CC0BFB03CCC01B1C
:1003300071EB0C01C1E70B46024641464846BDE859
:10034000F08B13B5084318BF4FF0FF300146AFF3F1
:100350000080BDE81C407047704770477047754685
:1003600000F02CF8AE4605006946534620F0070021
:10037000854618B020B5FFF765FFBDE820404FF077
:1003800000064FF000074FF000084FF0000BAC469E
:10039000ACE8C009ACE8C009ACE8C009ACE8C009E9
:1003A00021F007018D46704710B50446AFF3008079
:1003B0002046BDE81040FFF730BF000000487047FE
:1003C000A000002001491820ABBEFEE72600020075
:1003D00070470000FEE7000070470000012000F0B9
:1003E000FFBA000072B600BFFEE7000070B581B032
:1003F0000022009290F83C20012A03D102210846F5
:1004000001B070BD0E6801220A2E80F83C2009D38D
:10041000B2B25200D0F800E012FA86F21E3A0EF1A3
:100420000C0305E0D0F800E006EB46020EF11003E5
:100430004FF0070C1D680CFA02F4A5431D608D688F
:100440001C6805FA02F222431A60496806290FD88F
:1004500001EB81014A1F71461F2351F8345F93401D
:1004600025EA03030B60B3B203FA02F214E000BF03
:1004700001EB81030C29B2B204D8714651F8304F18
:10048000233B03E0714651F82C4F413B1F259D4013
:1004900024EA05059A400D600B6842F2043CC4F260
:1004A000010C1A43ACF541739E450A603BD1122EF4
:1004B00006D1DCF8001041F48001CCF8001032E0E5
:1004C00026F0010110292ED1DCF80010102E41F485
:1004D0000001CCF8001026D140F20801C2F2000160
:1004E00009684DF68362C4F21B32A1FB0212910C23
:1004F00001EB8101490000910099A1B100990139F6
:100500000091009979B1009901390091009951B198
:10051000009901390091009929B1009901390091A0
:1005200000990029EAD1002180F83C10084601B06A
:1005300070BD00000068C06C70470000002804BF58
:100540000120704710B50446006C00283ED0206C96
:10055000C00645D4206C41F202118843023042F2B9
:1005600004312064C4F20101086820F440300860BE
:100570000A6894E809101A43D4F810E00A60416848
:10058000012321F4807141604168C0F6007341EAA3
:100590000E214160416821F040714160416841EAAB
:1005A0000C014160816821F400618160E16882682A
:1005B00011438160A16A8268994222F07062826070
:1005C000826813D122F0405119E000BF204600F0AC
:1005D00065F80020606484F83C00206CC006B9D542
:1005E0000120002184F83C1010BD00BF1143816040
:1005F000816821F040518160E16A82681143816025
:10060000816821F0020181608168227E94F82030A7
:1006100041EA42018160416883B141F40061416077
:1006200041684EF2000221F460414160616ACFF6F8
:10063000FF72436802EB4131194301E021F400618C
:100640004160C16A40F2000C21F47001C162E269AC
:100650006169CFF6F07CC36A0CEB02521A43C262A6
:10066000826822F40072826094F83020836843EA42
:1006700042228260826822F480628260826842EA5A
:100680008121816000206064216C012262F30101FC
:100690002164002184F83C1010BD000080B586B0B4
:1006A00042F200010068C4F2010100228842059272
:1006B000049201D006B080BD43F630000092C4F22F
:1006C0000200436943F480734361436903F4807318
:1006D0000093009B0092036843F0010303600068ED
:1006E00000F0010000900098022001900320CDE965
:1006F000020201F5604001A900F07EF906B080BD5C
:1007000070B5044600680D468268520544BF806893
:100710005FEAC05038D400F049FA21680A689207AD
:1007200049D40646681C3CD0DDB90868800721D54D
:10073000086880073FD4086880071BD508688007D1
:1007400039D40868800715D50868800733D408684D
:1007500080070FD508688007E7D52CE00868800778
:1007600029D400F023FA801B2168A842F6D9086832
:100770008007F3D4206C40F004002064002084F84B
:100780003C00032070BD00BF206C40F020002064BE
:10079000002084F83C00012070BD00BF086880077D
:1007A00009D40868800706D4086880075CBF086819
:1007B0005FEA8070F2D56FF012000860206C40F4A0
:1007C00000702064886810F0405F01D1207E08B17D
:1007D000002070BDC86A10F4700F02D08868400510
:1007E000F6D4206C20F480702064206CC004EFD418
:1007F000206C40F001002064002070BD10B581B075
:100800000021009190F83C10012903D1022001B091
:1008100010BD00BF0468012180F83C10214651F84A
:10082000083FDB0729D10B684DF6836243F00103D3
:100830000B6040F20803C2F200031B68C4F21B32D3
:10084000A3FB02239A0C02EB42020092009AA2B18F
:10085000009A013A0092009A7AB1009A013A009205
:10086000009A52B1009A013A0092009A2AB1009A75
:10087000013A0092009A002AEAD10A68036CD20772
:100880000AD143F01001016400F1440101200A681B
:100890001043086056E000BF40F2017223EA0202F2
:1008A00002F5807202646268520504D5026C01236D
:1008B00063F30D320264026C4FF0000E0023D20489
:1008C00044BF426C22F0060342F2043C436480F8C9
:1008D0003CE06FF02200C4F2010C2060DCF8000064
:1008E000C0060DD0ACF5417084422BD14FF60450B8
:1008F000CFF6FF705CF8000010F0405F22D125E0D9
:1009000042F20000C4F20100844217D042F20020FB
:10091000C4F2010084420DD042F20010C4F2010082
:1009200084420FD1DCF80000C00607D0ACF582701D
:10093000844207D1DCF80000C00603D4086810F038
:10094000405F03D0002001B010BD00BF4FF08040D9
:100950009DE70000B0B5044600F028F9054640F2D6
:100960000000C2F200000078611C18BF044400BF00
:1009700000F01CF9401BA042FAD3B0BD10B501280D
:100980002CD100F013F940F20014C2F20004216AE5
:10099000401AB0F5FA7F98BF10BD00F007F9226841
:1009A000A1682062B2B9242914D840F60040C4F2EC
:1009B00002004FF40051012200F0F2F8A06840F26A
:1009C0000C01C2F2000151F82000E06000F0EEF8E6
:1009D000A1686060481CA06010BD00BF00BF10BDD2
:1009E00043F61441C4F201010A68024214BF0860D0
:1009F0007047FFF7C3BF00002DE9F04F82B000F150
:100A00003E4241F6004502F1FF77C4F2020508229A
:100A100043F6004E4FEAB726A84208BF0722C4F2A9
:100A2000010E072E38BF4FEAB72201250026002706
:100A30004FF00008009208E008F101080437B8F10F
:100A4000100F06F1020600F0A7800C6805FA08F9FD
:100A500014EA090FF0D0D1F804B003220BF0030C14
:100A6000ACF10104B240012C6FEA020A10D882688E
:100A7000CC6802EA0A02B440224382604268CBF3A7
:100A8000001422EA090204FA08F42243426005E055
:100A9000BCF1030F02D14FF0030C20E0C2688C6858
:100AA00002EA0A02B4402243BCF1020FC26016D12E
:100AB0006FF0030202EA58020244D2F820C007F0A5
:100AC0001C050F230C69AB402CEA030304FA05F55F
:100AD0002B431362D1F804B001250BF0030C02681C
:100AE0000CFA06F302EA0A021A431BF4403F0260C2
:100AF000A2D0002243F644030192C4F202031A6812
:100B00004FF6084C42F480421A601A68CFF6FF7C18
:100B100002F480420192019A28F00302724452F8D2
:100B20000C3007F00C050F24AC40A343009C04FAE2
:100B300005F52B4342F80C30DEF808204B6842EAFA
:100B4000090543F60C4CDC0258BF22EA0905CEF831
:100B50000850C4F2010CDCF800209C0242EA0905AE
:100B600058BF22EA0905CCF80050DEF804209C03A7
:100B700042EA090558BF22EA0905CEF80450DEF81A
:100B80000020DB0342EA090558BF22EA0905CEF836
:100B90000050012550E700BF02B0BDE8F08F000013
:100BA000002A08BF090481617047000040F26C1000
:100BB000C2F200000068704740F2000040F26C1181
:100BC000C2F20000C2F2000100780A681044086016
:100BD0007047000080B543F60040C4F2020001688F
:100BE00041F400710160016841F4806101600168B5
:100BF00041F480710160032000F08AF8002000F0C9
:100C000005F800F027F8002080BD000070B540F224
:100C10000006C2F2000640F208013278C2F200017A
:100C20004FF47A730968B3FBF2F20446B1FBF2F1B8
:100C3000084600F01DFB0F2C4FF0010508D838B90D
:100C40004FF0FF3021460022002500F035F8746097
:100C5000284670BD82B0002043F640010190C4F2E6
:100C600002014A6842F480424A604A6802F48042C3
:100C70000192019A0090086840F08050086008686E
:100C800000F0805000900098072002B000F040B8BB
:100C9000002848BF7047C1B200F01F00012202FACD
:100CA00000F04EF20012CEF2000242EAD10121F031
:100CB000030108607047000010B54EF60C5CCEF2E0
:100CC000000CDCF80030C3F3022E8EF00704042C75
:100CD00028BF0424BEF103034FF0FF3E0EFA04F4D4
:100CE00038BF0023A14399400EFA03F39A431143FE
:100CF00000F00F0200F160430901043A03F5644378
:100D00006244002848BF02F10C03197010BD0000B6
:100D10004EF60C51CEF200010A684FF6FF031A405E
:100D200060F30A2242F0806040F0FD700860704776
:100D30002DE9F041002800F08B8043F60808C4F24A
:100D400002080446D8F8F8030D4600F00700884270
:100D500007D288F8F853D8F8F80300F00700A84243
:100D600076D12068810717D5410705D5D8F800103E
:100D700041F4E051C8F80010010705D5D8F800107B
:100D800041F46041C8F80010D8F80010A26821F0C2
:100D9000F0011143C8F80010C0073FD1D8F8F8039C
:100DA00000F00700A84207D988F8F853D8F8F803EC
:100DB00000F00700A8424BD12068410707D5D8F8BA
:100DC0000010E26821F4E0511143C8F80010000758
:100DD00008D5D8F80000216920F4604040EAC1003D
:100DE000C8F8000000F054F8D8F8001041F662622C
:100DF000C1F30311C0F60002515C40F2080220FA70
:100E000001F140F20400C2F200000068C2F20002E8
:100E10001160FFF7FBFE0020BDE8F0816068811ED5
:100E2000022907D258F8081C89015CBF0120BDE8DF
:100E3000F08111E0012807D158F8081C89035CBF34
:100E40000120BDE8F08107E058F8081C890703D4A9
:100E50000120BDE8F08100BFD8F8001021F00301A7
:100E60000843C8F80000FFF7A1FE064641F28837A4
:100E7000D8F80000616800F00C00B0EB810F8DD055
:100E8000FFF794FE801BB842F2D90320BDE8F08141
:100E900010B543F60404C4F20204606800F00C01CB
:100EA00042F200400829C0F2F40007D0042918BF1C
:100EB00010BD41F20020C0F27A0010BD216801F09F
:100EC0003F02216823684902C3F3881106D4A1FBBD
:100ED00000010023FFF7C8F907E000BF41F200203E
:100EE000C0F27A004843B0FBF2F021680222C1F35D
:100EF000014102EB4101B0FBF1F010BD2DE9F041E1
:100F000082B0002868D00446007843F60006C00787
:100F1000C4F202060BD0B06800F00C00042840F0C8
:100F20009F803068800302D56068002854D0207804
:100F300080071AD5B06810F00C0F09D0B06800F027
:100F40000C00082840F0A6807068400200F1A280E2
:100F50003068800702D5E06801283DD130682169FA
:100F600020F0F80040EAC10030602078000737D454
:100F7000207840074CD4A56955B3B06800F00C0048
:100F8000082840F0BB80012D26D07068E16900F48C
:100F900080028A4220D1216A00F03F028A421BD19E
:100FA00047F6C071626A0140B1EB821F14D1A16A99
:100FB0004FF6FF73C903994300F44032A1F5803125
:100FC0008A4209D1E16A00F07060B0EB016F03D191
:100FD000002002B0BDE8F081012002B0BDE8F08140
:100FE0006069002840F20000C4F2472076D0012159
:100FF000C0F8801EFFF7DAFD054600BF706F80075E
:10100000B6D4FFF7D3FD401B0228F7D9DDE000BFBF
:10101000306C10F080580AD100200190306C40F004
:1010200080503064306C00F080500190019847F29D
:101030000007C4F200073868C00541D4386840F49E
:1010400080703860FFF7B2FD054600BF3868C00504
:1010500036D4FFF7ABFD401B0228F7D9B5E000BF3F
:10106000B06800F00C00082803D1706840023FF51A
:1010700058AF6068B0F5803F07D0B0F5A02F40F0C2
:101080008D80306840F480203060306840F48030DB
:1010900030608DE0E068002852D00020C4F2472084
:1010A00001210160FFF782FD054600BF306880071F
:1010B0003FF554AFFFF77AFD401B0228F6D984E0D4
:1010C000A068012805D005284ED1306F40F00400FB
:1010D0003067306F40F0010030674FE00021C0F80A
:1010E000801EFFF763FD0546706F80077FF540AFF8
:1010F000FFF75CFD401B0228F6D966E00027C4F22A
:10110000472700203866FFF751FD022D05460BD119
:10111000306880015ED5FFF749FD401B02284FF083
:101120000300F5D955E700BF306880017FF550AF67
:10113000FFF73CFD401B02284FF00300F4D948E7BD
:101140000020C4F2472000210160FFF72FFD054673
:10115000306880077FF509AFFFF728FD401B0228A4
:101160004FF00300F4D934E7316F002821F001017A
:101170003167316F21F0040131674DD0FFF716FD63
:10118000054641F2883700BF306F800756D4FFF71D
:101190000DFD401BB842F7D917E000BF31680028A9
:1011A00021F480313160316821F4802131604FD0E9
:1011B000FFF7FCFC054600BF306880033FF5B7AE83
:1011C000FFF7F4FC401B6428F6D9032002B0BDE809
:1011D000F08100BF04F11C052FCD084340EA8210C6
:1011E000D9034FF6FF729143A1F5803140EA0560C3
:1011F0000843706001203866FFF7D8FC044600BF42
:10120000306880013FF5E4AEFFF7D0FC001B0228F8
:101210004FF00300F4D9DCE6FFF7C8FC054641F2C5
:10122000883700BF306F800708D5FFF7BFFC401B31
:10123000B8424FF00300F5D9CBE600BFB8F1000F7C
:101240007FF499AE306C20F08050306493E600BF9C
:10125000FFF7ACFC054600BF306880037FF567AE42
:10126000FFF7A4FC401B64284FF00300F4D9B0E65C
:10127000411E0020B0EB116F1CBF012070474EF2E1
:101280001002CEF2000251604EF62351CEF2000160
:10129000F0230B700721906011607047FEE700009B
:1012A000B0B584B040F2241042F2000101230024C2
:1012B000C2F20000C4F201010125C0F600730394DC
:1012C0004FF48032057680F82040C0E90A34C561C9
:1012D00080F8304080E81600C0E903444461FFF71D
:1012E0002DF9002818BFFFF77DF840F22410C2F254
:1012F00000006946CDE900550294FFF777F8002811
:1013000018BFFFF76FF804B0B0BD00002DE9F04F33
:1013100087B0002643F6300006960196C4F202001C
:10132000016840F2000A41F0100101600168C4F256
:10133000020A01F0100101910199019601680AF574
:10134000805741F0040101600168002201F00401AE
:1013500001910199019601684FF0080841F0800160
:101360000160016801F08001019101990196016815
:1013700041F001010160016801F001010191019951
:101380000196016841F002010160016801F002016B
:10139000019101990196016841F00801016000681E
:1013A000082100F008000190019838460097FFF7E7
:1013B000F7FB0AF500642046012101220125FFF711
:1013C000EFFB0AF5406948464FF210010022FFF793
:1013D000E7FBCDE9028502AD38462946CDE9046632
:1013E000FFF70AFB0120CDE902002046294601272C
:1013F000CDE90466FFF700FBCDF808804FF0020B43
:101400004FF0050820462946CDE903B60596CDF8EC
:101410001880FFF7F1FA4FF48810CDE9030B50461E
:1014200029460297FFF7E8FA1020CDE9020B0620C3
:10143000069050462946CDE90466FFF7DDFAE02024
:10144000CDE9020B50462946CDE90466CDF8188057
:10145000FFF7D2FA04200AF58067CDE90206384684
:1014600029460496FFF7C8FA4FF48060CDE9020BD5
:1014700038462946CDE90466CDF81880FFF7BCFA56
:101480004FF21000029001200390484629464FF089
:101490000108CDE90466FFF7AFFA4FF4A450CDE997
:1014A000020B0620069020462946CDE90466FFF788
:1014B000A3FA4FF40070CDE902065046294604967F
:1014C000FFF79AFA4FF4E050CDE9020B0A2006909C
:1014D00050462946CDE90466FFF78EFA2020CDE973
:1014E0000206484629460496FFF786FA4FF4107024
:1014F00002901220CDE903080420069038462946C0
:101500000596FFF779FA4FF49010CDE9030600989D
:101510002946CDF808B0FFF76FFA06200021002217
:10152000FFF7CAFB0620FFF7B3FB07B0BDE8F08F5B
:10153000FEE70000FEE70000704700007047000073
:10154000FFF73ABBB0B592B0002443F64000CDE9B6
:101550000A44CDE908440594CDE90344CDE90144AA
:101560000094C4F202000168022541F0805101603C
:10157000006800F080500090009847F2000000944E
:10158000C4F20000016841F480410160006800F489
:10159000804000900098012006904FF48030079022
:1015A0004FF480000D9008200E904FF4A870CDE904
:1015B0000F050720119006A80C95FFF79FFC18B1A6
:1015C00072B600BFFEE700BF0F20CDE901054FF462
:1015D000A05004904FF48050059001A80521039479
:1015E000FFF7A6FB10B172B6FEE700BF12B0B0BDA8
:1015F0004EF68850CEF20000016841F4700101609F
:1016000070470000FEE7000086B0FFF7E3FAFFF73F
:1016100099FFFFF77BFEFFF743FE40F22414C2F26E
:1016200000042046FFF7EAF840F20016C2F2000676
:101630000020C6E90000C6E9020020460221FFF7AB
:101640005FF808B1306906E040F22410C2F20000F1
:10165000FEF770FF306100EE100A40F60044B8EE6D
:10166000400A4FF47A60C4F2020486ED050AFFF7DF
:1016700071F920464FF480410122FFF791FA20468C
:101680004FF400510022FFF78BFA9FED4B0B9FEDBB
:101690004C1B51EC100B9FED4C0BCDE9041051ECA1
:1016A000110B40F22415CDE90210C2F200055BECEB
:1016B000100B01901CE000BF20464FF400510122A6
:1016C000FFF76EFA20464FF480510122FFF768FAC7
:1016D00020464FF480410122FFF762FA20464FF482
:1016E00000410122FFF75CFA40F22415C2F2000526
:1016F000D6E90401C6E9060128460221FFF700F8F1
:1017000010B1D6F810A004E02846FEF713FF824679
:101710003061F06900F022FB96ED061A00EE10AA87
:10172000B8EE400AB8EE411A30EE010A814610EEDA
:10173000100A884600F012FBDDE9043200F022F9BD
:10174000DDE9023200F01EF9019A07460D464846CF
:1017500041465B4600F016F93A462B4600F06AF81F
:1017600000F036F8B16870612529A5D8FFF71EFA98
:10177000716840F68A22401AA0F22D11914209D8D0
:1017800020464FF400510122FFF70AFA0120306091
:10179000AAE700BF40F6B83140F224158842C2F2F1
:1017A0000005A5D320464FF400510022FFF7F8F9B9
:1017B000002030609CE700BF8014AE47E17A843F90
:1017C000000000000000E03FAE47E17A14AEEF3FBA
:1017D00021F0004201F00043A2F16052B2F5801FF7
:1017E00028BFD2F17F6C0BD95FEA001C43EAC2022A
:1017F00042EB507018BF704728BF20F001007047BF
:10180000B2F5801FBCBF184670474FEA410C1CF56B
:10181000001F02D2084600F01FBB70B500F05CF953
:1018200000000089FFF7F6BF4FF00040A0F58000F0
:101830007047000010B591EA030F48BF83F00043E2
:1018400000F1A681841A71EB030C05D2121943EB47
:101850000C03001B61EB0C014FEA1154A4EB135C69
:10186000DFF81CE11EEA430F18BF9EEA445F00F058
:10187000748021EA045123EA0E0343F48013DCF15F
:10188000200E32D322FA0CFE10EB0E0023FA0CFECF
:1018900041EB0E01CCF1200E03FA0EFE10EB0E0010
:1018A000CCF1200E51F10001B1F5801F32D201EBD5
:1018B000045112FA0EF2BDE8104058BF7047401CA8
:1018C00038BF5FEA420218BF7047002814BF20F0FB
:1018D000010041F100014FEA410313F5001F38BF39
:1018E0007047A1F1C04100F045B9012A43EB030262
:1018F000ACF1200CDCF11F0E32BF4FF0000E23FACA
:101900000CF310EB030041EB0451B4EB115FD0D0AA
:10191000A1EB045101F58011490801EB04515FEA84
:1019200030000ED350F1000038BF12FA0EFE08D17D
:10193000BDE81040C9E7401C38BF5FEA4202CAD187
:10194000C3E7BDE810404FEA410313F5001F38BF5D
:101950007047A1F1C04100F00DB99EEA445F08D084
:1019600011EA5E0FBDE8104004BF01F00041002005
:101970007047BDE8104070B500F0AEF864FBBE3EA5
:101980000000E0FF70B5DFF848C11CEA111E1EBF61
:101990001CEA13159EEA0C0F95EA0C0F00F06F80FD
:1019A00081EA03044EEAD47EAE4421EA4C1123EAD4
:1019B0004C1341F4801143F48013AEF17F7EA1FB00
:1019C000024CA0FB0365361955EB0C05A1FB034C3B
:1019D0004CF10003A0FB021C16EB0C06654153F111
:1019E0000003094218BF46F0010613F4007F0BD133
:1019F0004FEA03314FEA053041EA155140EA1650EB
:101A000034036FF003020AE04FEAC3214FEAC52016
:101A100041EA555140EA5650F4026FF0020202EBDF
:101A20002E4201EB025585EACE710AD05FEA440CE2
:101A300018BF24F0004450F1000041F1000120EAF9
:101A4000D47040F2FE7C624500D270BDA84214BF43
:101A50004FF080444FF04044002E08BF0024BEF1F8
:101A6000806FA8BFA1F1C041BDE8704080F28280C4
:101A700001F1C04101F000414FF0000070470CEA55
:101A800013159EEA0C0F18BF95EA0C0F06D081EAD9
:101A9000030E4FF000000EF0004170BD00F01CF886
:101AA0008900013E00F007B800F009B84FEA430C86
:101AB0005FEA5C5C08D081EA030100F05BB84FEAA2
:101AC000410C5FEA5C5CF6D102494FF000007047C0
:101AD0000000FF070000F87F0EF1020E2EF0030E4B
:101AE0005EF8046B364205D4012A43EB030515F575
:101AF000001F12D8012841EB010C1CF5001F0CD867
:101B00000ED14FEAD17C0CEB4C0C0CF1020C15F50C
:101B1000001F08BF4CEBD37C04E04FF0080C01E041
:101B20004FEAD37C0CEB4C0526FA05F606F00706C7
:101B3000B6F1040C06D20EEB860CBDE870404CF0FA
:101B4000010C6047DFE80CF0090B02024FF0004186
:101B5000A1F500214FF0000070BD19461046012884
:101B600051EB010418BFD4F5001484BF002001F02C
:101B7000004170BD0808A0F500114FEA310170471F
:101B800010B591EA030F48BF83F000433FF55AAE0A
:101B9000841A71EB030C07D28CF0004C121943EB42
:101BA0000C03001B61EB0C014FEA1154A4EB135C16
:101BB000DFF8A4E11EEA430F18BF9EEA445F00F07D
:101BC000B48021EA045123EA6E035242C3EB6E0350
:101BD00038BF5B1EDCF1200E25D322FA0CFE10EB81
:101BE0000E0043FA0CFE41EB0E01CCF1200E03FA7D
:101BF0000EFE10EB0E00CCF1200E51F1000129D4A5
:101C000001EB045112FA0EF2BDE8104058BF7047C4
:101C1000401C1CBFB2F1004F704700280CBF491C8C
:101C200020F00100704712EB020E43EB030218BFD5
:101C30004FF0010E4EEA4202ACF1200CDCF11E0E18
:101C400056D943FA0CFE10EB0E00CCF11E0E51F1EA
:101C5000FF31D5D50EF1010E12FA0EFE404141EBD7
:101C6000010101EB445C5FEA5C5C10D901EB0451BB
:101C700010EBDE7038BFBEF1004FBDE8104018BF5A
:101C8000704700280CBF491C20F00100704734D277
:101C90004FEAD42C24F4006411F500111BD0B1FAE2
:101CA00081F20B3AA41AA41ED2F12003914030FA1B
:101CB00003F31943904001EBCC7101EB0451002C6C
:101CC000BDE81040A8BF704701F1C04101F00041DC
:101CD0004FF000007047B0FA80F310FA03F102D120
:101CE000BDE810407047E41A173C4805C90AE2E70E
:101CF00001EB0451BDE81040704749104FEA300035
:101D000001EB0451BDE8104002E04FF000017047C4
:101D10004A0008BF0042F8D0B2F5001F28BF704744
:101D200001F000414FF0000070479EEA445F07D089
:101D300011EA5E0FBDE8104004BF0021002070478B
:101D4000BDE8104070B5FFF7C7FE00BF40DFF63EAC
:101D5000104683F0004170470000E0FF43004FEA67
:101D6000D30C4FEA3C0C43401FBF40070CF16051BD
:101D700013F0FE4F70471CF0006F03D10CF00041D0
:101D8000002070470CF0004343EA507040EACC005A
:101D900010B500F00EF800BF000000924FEA0001FD
:101DA000FFF7E8BE4FF00041A1F500214FF0000021
:101DB00070470EF1020E2EF0030E5EF8044B244223
:101DC00004D44FEA4102B2F17F4F11D84FEA4003E9
:101DD000B3F17F4F0CD80ED14FEAD07C0CEB4C0CFA
:101DE0000CF1020CB2F17F4F08BF4CEBD17C04E048
:101DF0004FF0080C01E04FEAD17C0CEB4C0324FAC5
:101E000003F404F00704B4F1040C06D20EEB840CC6
:101E1000BDE810404CF0010C6047DFE80CF007080B
:101E200002024FF00040A0F5800010BD08464200BD
:101E300018BFD2F1807288BF00F0004010BDF1EEF3
:101E4000100A4FF6FF71C0F2C03120EA010040F0E5
:101E50004070E1EE100A7047FF2141EAD050C00502
:101E600070470000000000000000010203040607A4
:101E700008090000981E000800000020A0000000D3
:101E8000C4010008381F0008A0000020D006000090
:101E9000E001000800000000010000001000000048
:101EA0000024F4000000000000007A430000FA4320
:101EB000000087440040A6440080C54400A00745B8
:101EC0000040174500E026453303464533A35545FA
:101ED00033A36445334374459AF181459A71A4450F
:101EE0009A41AC45664EB245661EBA4566EEC1459E
:101EF000661EBA45664EB2459A41AC459A71A445F4
:101F00009AF181453343744533A3644533A3554562
:101F10003303464500E026450040174500A007452D
:101F20000080C5440040A644000087440000FA43F6
:081F300000007A4300000000EC
:040000050800018965
:00000001FF
